:020000040800F2
:10000000A0040020B11B0008691B00086B1B00083E
:100010006D1B00086F1B0008711B0008000000002A
:10002000000000000000000000000000731B00083A
:10003000751B000800000000771B0008791B0008F2
:10004000D91B0008DD1B0008E11B0008E51B0008A8
:10005000E91B0008ED1B0008F11B0008F51B000858
:10006000F91B0008FD1B0008011C0008051C000806
:10007000091C00080D1C0008111C0008151C0008B4
:10008000191C00081D1C0008211C0008251C000864
:10009000291C00082D1C0008311C0008351C000814
:1000A000391C00083D1C0008411C0008451C0008C4
:1000B000491C00084D1C0008511C0008551C000874
:1000C000591C00085D1C0008611C0008651C000824
:1000D000691C00086D1C0008711C0008751C0008D4
:1000E0007D1B0008791C00087D1C0008811C00088D
:1000F000851C0008891C00088D1C0008911C000844
:10010000951C0008991C00089D1C0008A11C0008F3
:10011000A51C0008A91C0008AD1C0008B11C0008A3
:10012000B51C0008B91C0008BD1C0008C11C000853
:10013000C51C0008C91C0008CD1C0008D11C000803
:10014000D51C0008D91C0008DD1C0008E11C0008B3
:10015000E51C0008E91C0008ED1C0008F11C000863
:10016000F51C0008F91C0008FD1C0008011D000812
:10017000051D0008091D00080D1D0008111D0008BF
:10018000151D0008191D00081D1D0008211D00086F
:10019000251D000800000000291D00082D1D000875
:1001A000311D0008351D0008391D00083D1D0008DF
:1001B000411D0008451D0008491D00084D1D00088F
:1001C000511D0008551D0008591D00085D1D00083F
:1001D000611D0008651D000838B5040009D004F150
:1001E0007C05696809B900F01EF800F021F80128C3
:1001F00001D1012032BDA06A08B100F02AF800F058
:100200000AF821F02A01FFE7816000F01BF8BDE841
:10021000324000F096BA2068416821F49041416074
:1002200020688168704700202870204600F033BBAA
:10023000242169602068026852085200026020464A
:1002400000F0D4B82068016841F001010160204647
:100250007047204600F012BA2DE9FC47054605F12B
:100260007C04884660682028174699464DD1B8F12D
:10027000000F14BF002F012048D02078012844D05F
:10028000012121700020E0602122626005F1540606
:1002900000F036FB378082467780A868B0F5805F33
:1002A00004BF286900280EBF4746404600270021AA
:1002B000217080460FE018F8012B826208E0286860
:1002C000B8F1000FF7D137F8021BC1F308018162C2
:1002D0007088411E718053467088CDF800900028C8
:1002E00007D000228021284600F058FA0028E6D0E6
:1002F00005E000224021284600F050FA08B1032012
:1003000004E020206060002000E00220BDE8F687C5
:100310002DE9F84F074607F17C051446A868202808
:10032000984660D15FEA010A14BF002C01205BD01F
:100330002878012857D0012129700020E860222266
:10034000AA6007F15C0600F0DBFA34808146748015
:10035000FF21B868B0F5805F04D1386990B940F2E8
:10036000FF110FE018B9386960B17F2007E0B0F1E4
:10037000805F06D1386908B97F2103E03F20B08053
:1003800001E00021B180B868B488B0F5805F04BF97
:10039000386900280EBFD34650464FF0000B0021AD
:1003A000297082460DE03868406ABAF1000F19BF23
:1003B00020400AF8010B20402BF8020B7188481EE0
:1003C0007080708858B1CDF800804B460022202103
:1003D000384600F0E3F90028E5D0032004E02020AF
:1003E000A860002000E00220BDE8F28FF8B50446C6
:1003F000DFF834142268DFF834E41368A068DFF80B
:1004000030740B402169034360690B43E169034386
:10041000606E0B430343136000255168E06821F4CC
:10042000405101435160A369DFF8F8138A421CBFB1
:10043000206A03439668DFF8FC0306403343936069
:100440000FF20C46D36A606A1B0940EA0313D362B9
:100450007245DFF8E4034FF400433FD13F6807F0F3
:100460000307032F48D8DFE807F0028A799E4FF090
:10047000010CE169B1F5004F4FF6F07740F0C6800E
:10048000BCF1000F0FD0BCF1010F00F0B780BCF140
:10049000020F0CD0BCF1040F00F0B380BCF1080FC8
:1004A00000F0B280DFE000F017FD002815D0626A8E
:1004B000616836F81230B0FBF3F04A0802EB4002F4
:1004C000B2FBF1F080B2A0F11001B942EAD20740CC
:1004D000C0F3420007432068C760C5E0DFF85CC393
:1004E00062452CD13F6817F00C076ED0042F46D020
:1004F000082F33D00C2F56D04FF0100C8A42B8D1B1
:10050000BCF1000F09D0BCF1020F0AD0BCF1040FFE
:100510005DD0BCF1080F5DD0A5E000F0DDFC002847
:10052000DBD0616A36F81120B0FBF2F6626802EBAC
:1005300042018E4202D31303B3424DD293E0DFF85F
:1005400000C362450DD13F6817F030073DD0102F32
:1005500015D0202F02D0302F25D0CDE74FF0020C40
:10056000CCE7DFF8E0C262450CD13F6817F0C00766
:100570002BD0402F03D0802FF0D0C02FECE74FF0CE
:10058000040CBBE7DFF8C0C262450FD13F6817F427
:1005900040771AD0B7F5807FF1D0B7F5007FDDD076
:1005A000B7F5407FA8D14FF0080CA7E78A42A3D146
:1005B0003F6817F4406708D0B7F5806FDFD0B7F514
:1005C000006FCBD0B7F5406FC6E7AC4696E700F0BA
:1005D00054FCA4E71846A4E75008002110EB0620BD
:1005E00051EB1661002300F0A7FCA0F54076DFF880
:1005F0005C72BE4237D22168C86035E000F074FCFE
:1006000053E700F03AFC50E7184650E7BCF1000F02
:100610000CD0BCF1010F1ED0BCF1020F09D0BCF10F
:10062000040F1BD0BCF1080F1BD01CE000F054FCE1
:10063000D0B1626A36F812306168B0FBF3F000EBBB
:100640005100B0FBF1F080B2A0F11001B9420AD222
:100650002268D06008E000F047FCE9E700F00DFCFC
:10066000E6E71846E5E7012504F1680001210023CB
:1006700041800180436083602846F2BD90F82810D5
:10068000CA0706D502685368C16A23F400330B43D6
:10069000536090F828108A0706D502685368016BEA
:1006A00023F480330B43536090F828104A0706D593
:1006B00002685368416B23F480230B43536090F826
:1006C00028100A0706D502685368816B23F400439B
:1006D0000B43536090F82810CA0606D50268936849
:1006E000C16B23F480530B43936090F828108A0663
:1006F00006D502689368016C23F400530B439360A2
:1007000090F828104A0610D502685368416C23F40B
:1007100080130B435360436CB3F5801F05D15368BE
:10072000816C23F4C0030B43536090F828100A0631
:1007300006D501684A68C06C22F4002202434A6070
:100740007047F8B5044604F17C050020E8606FF0BE
:100750007E4700F0D5F80646206801680A0708D5EC
:100760000097334600224FF40011204600F016F89F
:1007700060B9206801684A070AD50097334600220D
:100780004FF48001204600F009F808B10320F2BDC3
:1007900020206860A86000202870F2BD2DE9F0419B
:1007A000069C05460E4690461F462868C1693140A2
:1007B000B1420CBF01200020404520D114F1010FAF
:1007C000F3D000F09DF8C01B844200D334B900F090
:1007D00018F8002101700320BDE8F0812868016845
:1007E0004A07E2D5C1690805DFD54FF400612A68E0
:1007F0001162002200F005F8C1600270EBE70020F2
:10080000EAE72868016821F4D071016028688168EE
:1008100049084900816005F17C0020214160816028
:100820007047000000800040F369FFCF00380140AE
:1008300088100240FFF4FF110024F400004400403F
:1008400000480040004C00400050004000FD0F00F8
:10085000010002000400060008000A000C0010005D
:100860002000400080000001224882B0816841F0F1
:1008700001018160816801F0010100910099026825
:1008800042F080520260006800F0805000900098B2
:1008900002B000F038BC10B586B004461422002126
:1008A00001A800F041FC21681348814220D113487F
:1008B000016941F001010161016901F0010100914B
:1008C0000099026842F0010202600C21006800F009
:1008D00001000090022200980191029200210391F0
:1008E00004914FF090400C21059101A900F026FCE5
:1008F00006B010BD58100240008000404C1002406D
:1009000001480068704700BF000000202DE9F8434F
:1009100004006DD02078DFF8E865C10717D500F036
:10092000D0F90CD101F0030103290AD06068B0F5B9
:10093000803F2AD1306840F48030306037E00828AA
:10094000F4D13068810302D56068002850D0217846
:10095000880759D500F0B5F943D101F00301022908
:1009600041D0E06800286AD0316841F4807131607C
:10097000FFF7C6FF0546306841055DD4FFF7C0FFAD
:10098000401B0328F7D3032091E1B0F5A02F306876
:1009900006D140F480203060316841F4803105E0B8
:1009A00020F480303060316821F48021316060684B
:1009B00058B1FFF7A5FF054630688103C7D4FFF79C
:1009C0009FFF401B6528F7D3DDE7FFF799FF05463A
:1009D00030688103BBD5FFF793FF401B6528F7D331
:1009E000D1E70428BDD13068410503D5E06800286F
:1009F00000F05A8100F05DF9DFF81005006800F0A2
:100A00009FFC002840F050812078DFF80475010732
:100A100034D560690028786821D040F00100786002
:100A2000FFF76EFF05467868810727D4FFF768FF58
:100A3000401B0328F7D3A6E700F03BF9E4E7306852
:100A400020F480703060FFF75BFF05463068410599
:100A5000DAD5FFF755FF401B0328F7D393E740088B
:100A600040007860FFF74CFF05467868810705D5A0
:100A7000FFF746FF401B0328F7D384E720784107A0
:100A800063D5B06D0025C10009D4B06D40F0805031
:100A9000B0650125B06D00F0805000900098DFF83F
:100AA0007484D8F80000C10513D4D8F8000040F4CD
:100AB0008070C8F80000FFF723FF8146D8F80000D7
:100AC000C10506D4FFF71CFFA0EB09000328F5D3EE
:100AD00059E7A068012804D1386840F00100386067
:100AE00010E00528386806D140F004003860396805
:100AF00041F0010105E0400840003860396821F00C
:100B000004013960A06841F2893860B1FFF7F8FE4E
:100B100081463868810713D4FFF7F2FEA0EB090085
:100B20004045F6D32FE7FFF7EBFE81463868810793
:100B300006D5FFF7E5FEA0EB09004045F6D322E716
:100B40001DB1B06D20F08050B0652078810621D5B0
:100B5000A0690028B8680ED040F00100B860FFF727
:100B6000CFFE0546B868810714D4FFF7C9FE401BC5
:100B70000328F7D307E740084000B860FFF7C0FE3E
:100B80000546B868810705D5FFF7BAFE401B032864
:100B9000F7D3F8E6E069002800F08880B16801F03A
:100BA0000C010C2955D00228306820F0807030608C
:100BB0003AD1FFF7A5FE05463068810105D5FFF75C
:100BC0009FFE401B0328F7D3DDE6F068DFF84813EB
:100BD000226A0840616A1043491E40EA0110226BF4
:100BE000A16A520840EA0120616B521E490840EA9E
:100BF0004250491E40EA4160E16A40EAC160F0604B
:100C0000306840F080703060F16841F08071F160D0
:100C1000FFF776FE04463068810147D4FFF770FE87
:100C2000001B0328F7D3AEE6F168DFF8F00289086D
:100C30008900F160F1680140F160FFF761FE044650
:100C40003068810132D5FFF75BFE001B0328F7D324
:100C500099E6012828D0F068226A00F00301914249
:100C600001BF00F0F001626A521EB1EB021F1BD1FE
:100C7000A26A00F4FE41B1EB022F02BF00F07841FE
:100C8000E26AB1EBC26F0FD1226B520800F4C001CF
:100C9000521EB1EB425F07D1616B490800F0C060A2
:100CA000491EB0EB416F01D0012000E00020BDE8FB
:100CB000F2837068216920F0FE4040EA01607060B4
:100CC0007047B068F16800F00C000C2870472DE9FF
:100CD000F04704460027002C894668D0DFF84062C0
:100CE00000F0C6F804D200F0BDF800F0C1F85ED103
:100CF0002078DFF80C52C10741F2893859D5606875
:100D0000DFF820A2032828D1286881014FD5E9689F
:100D1000E868C0F30310401C01F0030103290CBF75
:100D2000DFF80412DFF8E011B1FBF0F1E868C0F37E
:100D300006204143E868C0F34160401C4000B1FB1D
:100D4000F0F0504519D3A96811F0F00F0ED02078BB
:100D5000810712D5A06880B908E00228286824D14C
:100D6000810324D500F089F8504506D3A86820F007
:100D7000F00040F08000A8608027A96860688908BA
:100D800040EA8101A960FFF7BBFD8246A86861685F
:100D900000F00C00B0EB810F0BD0FFF7B1FDA0EB22
:100DA0000A004045F2D303205AE04105DAD401207D
:100DB00056E02068810715D5400703D5A96841F49E
:100DC000E061A9602078010705D5A86820F460508B
:100DD00040F4E060A860A968A06821F0F001014338
:100DE000A96005E0802F03D1A86820F0F000A8607A
:100DF000306800F00F0081450DD200F033F8FFF7A6
:100E00007FFD074600F034F805D0FFF779FDC01BE1
:100E10004045F7D3C7E72078410705D5AA68E068C1
:100E200022F4E0620243AA602178080706D5A96887
:100E3000206921F4605141EAC001A96000F01DF869
:100E4000AA683A49C2F30312895C2E4A01F01F01D5
:100E5000C8401060BDE8F0472C48006800F070BA48
:100E6000BDE8F0873168090949EA0111316070472E
:100E7000306800F00F00484570472D49086800F0C1
:100E80000C00042801D120487047086800F00C00CD
:100E9000082801D124487047086800F00C000C288D
:100EA00018D14A684868C0F30310401C02F00302DE
:100EB000032A0CBF1C4A144AB2FBF0F24868C0F384
:100EC000062042434868C0F34160401C4000B2FB2A
:100ED000F0F07047002070470A48154A0068136810
:100EE0001449C3F3022206E00648114A0068136859
:100EF0001049C3F3C222895C01F01F01C84070474A
:100F0000001002400C0000200024F4000400002027
:100F100090100240007000400C809F01FFFFEEFE29
:100F20000020024001B4C40400366E01A01A00087B
:100F300008100240D01B0008D3BBD9B1B2F5803FE6
:100F40005BD2022A1ED98C46B1FBF2F102FB11C31F
:100F50001B0443EA1043B3FBF2FC02FB1C3380B2D8
:100F600040EA0343B3FBF2F002FB103240EA0C40CC
:100F700000237047022A05D98446B0FBF2F002FB39
:100F800010C270474AB105D100F0010249085FEA7A
:100F90003000704700220023704700F0F3B90B00C7
:100FA0000200002100207047F7D300220023704781
:100FB000904271EB030CF2D370B5B1FA81F4B3FA3D
:100FC00083F52C1BA340C4F1200532FA05F6334308
:100FD000A2405FF00046E64002E05B085FEA3202B2
:100FE000841A71EB030524BF204629467641F4D3C9
:100FF00002000B003000002170BD70B5B1FA81F421
:10100000B2FA82F5C4F120046419B4F12006DAD3EF
:10101000B2405FF00044F440002502E052085FEA6D
:101020003303C61A71EB020E24BF30467146644189
:101030006D41F3D302000B002000290070BD30B4D5
:10104000002513E050F8042BD30744BFA9F1010396
:101050009A18091F042942F8045BFAD213468C0738
:1010600044BF15809B1CC90748BF1D7050F8041B66
:101070000029E7D130BC704710B53222DFF89C3030
:10108000DFF89440DFF88C1048B900F01EF820F427
:101090008070206017D100F01FF80CD413E0B0F579
:1010A000007F0AD100F011F840F4807020600AD16E
:1010B00000F012F807D5032010BD0A6822F4C062C0
:1010C00042F480620A60002010BD086800F4C0602D
:1010D000B0F5806F206870470C6824F4C06444F455
:1010E00000740C601868DFF838304243B2FBF3F04C
:1010F000401C00E0401E4A69530501D50028F9D183
:101100004869410570470748016841F48041016022
:101110007047000000700040807000400C0000200C
:1011200040420F000870004010B5044610460A46C1
:101130000146204600F028F9204610BD2DE9F84F61
:1011400000276A4A6A4B4FF00F0805460E4634E006
:10115000684CA54214BF062405248C40664944EA25
:101160000E0441F82C40C143146801EA040C746871
:10117000E40348BF40EA0C0CC2F800C0546801EA1E
:10118000040C7468A40348BF40EA0C0CC2F804C005
:10119000946801EA040C7468E40248BF40EA0C0C4D
:1011A000C2F808C0D46801EA040C7168890248BF1B
:1011B00040EA0C0CC2F80CC07F1C316831FA07F011
:1011C00000F085800124BC4014EA0100F4D04FEA0D
:1011D000470C032101FA0CF16FEA010E7168012935
:1011E00018BF022903D0112918BF122912D1A968EA
:1011F000D6F80C900EEA010109FA0CF949EA01014E
:10120000A960696821EA04047168C1F30011B9405A
:101210000C436C60E968B4680EEA010104FA0CF44E
:101220002143E960B9007468022C18BF122C12D156
:10123000FC0805EB840401F01C09D4F820A008FA8E
:1012400009FB2AEA0B0AD6F810B00BFA09F949EAA9
:101250000A09C4F820902C680EEA040E347904F0D0
:10126000030404FA0CF444EA0E042C607468E400ED
:10127000A2D51C6844F001041C604FEA970C1C685E
:1012800004F00104009401F00C01009C1A4C54F885
:101290002C4008FA01FE24EA0E0EB5F1904F08BF6B
:1012A000002413D0154CA54208BF01240ED0144CC5
:1012B000A54208BF022409D0124CA54208BF03244E
:1012C00004D0114CA5427FF443AF042445E7BDE8A8
:1012D000F18F0AB181617047816270470B4A1368D0
:1012E00003421CBF106000F013B8704700040140B7
:1012F000601002400014004808000140000400484B
:1013000000080048000C0048001000481404014088
:10131000704730B40EE00268436802440830DC07CE
:1013200044BFA9F10104E31852F8045B43F8045BDD
:10133000091FF9D150F8041B0029ECD130BC7047CB
:1013400070B50E4E0446B0680025A0B14FF47A7116
:101350000B4AB1FBF0F11068B0FBF1F000F08BF834
:1013600048B9102C07D2002221464FF0FF3000F080
:1013700059F8746000E00125284670BD0000002087
:101380000C0000207047000062F30F2262F31F423E
:10139000401810F0030308D0C91A1FD3DB0748BF59
:1013A00000F8012D28BF20F8022D130030B4144698
:1013B0001546103928BF20E93C00FAD8490728BF54
:1013C00020E90C0048BF40F8042D890028BF20F810
:1013D000022D48BF00F8012D30BC7047C91818BF56
:1013E00000F8012DCB0728BF00F8012D7047000041
:1013F0000901020002D42A4881547047294B02F0A7
:101400000F021A4402F8041C7047274B19684FF664
:10141000FF020002114000F4E06008432349084342
:101420001860704770B5204B1C68C4F30223012478
:10143000C3F10705052D2EBF0F2504FA05F56D1E16
:101440001E1D072E34BF0023DB1E2940994004FADD
:1014500003F3BDE870405B1E1A401143C8E700006B
:10146000010007D4012200F01F01114B8A404009FE
:1014700043F82020704710B5401EB0F1807F01D3A3
:10148000012010BD0B4C60600F214FF0FF30FFF7C3
:10149000AFFF0021A16007202060002010BD0000E8
:1014A00000E400E018ED00E00CED00E00000FA05BB
:1014B00000E100E010E000E02DE9FC4705464FF0B8
:1014C00000082868DFF87062DFF87072010353D5F6
:1014D000F06CC100C1460AD4F06C40F08050F0645A
:1014E0004FF00109F06C00F0805000900098DFF898
:1014F0005042206840F480702060FFF701FA824675
:101500002068C10506D4FFF7FBF9A0EB0A00032809
:10151000F6D321E0386810F440701CBF296D884272
:101520000BD03868396841F48031396020F440705C
:101530003A6822F480323A603860C0070FD5FFF76E
:10154000DFF904463868810709D4FFF7D9F9001B91
:1015500041F289318842F5D34FF0030805E039683C
:10156000286D21F4407101433960B9F1000F03D0B7
:10157000F06C20F08050F0642878C10705D5F26F38
:101580006868920840EA8202F2672978880705D5E0
:10159000F16FA86821F00C010143F1672978480731
:1015A00005D5F16FE86821F030010143F167297832
:1015B000080705D5F16F286921F0C0010143F167E3
:1015C0002978C80605D5F16F686921F44071014397
:1015D000F1672978880605D5F16FA86921F4406183
:1015E0000143F1672978480605D5F16FE86921F4D0
:1015F00040510143F1672978080605D5F16F286A43
:1016000021F440410143F1672968C80505D5F16F10
:10161000686A21F440310143F1672968880305D5E0
:10162000F968A86A890840EA8101F9602968880593
:1016300005D5F16FE86A21F440210143F16729687B
:1016400048050AD5F16F286B21F440110143F16779
:10165000296BB1F5801F00F069F8296808050AD5E3
:10166000F16F686B21F440010143F167696BB1F5DB
:10167000800F00F05BF82968C8040AD5F16FA86BE9
:1016800021F040710143F167A96BB1F1807F00F057
:101690004DF82968880408D5F16FE86B21F04061A6
:1016A0000143F167E96B00F03FF82968480408D569
:1016B000F16F286C21F040610143F167296C00F063
:1016C00033F8296808040AD5F16F686C21F040519D
:1016D0000143F167696CB1F1805F00F01FF8296880
:1016E000C8030AD5F16FA86C21F040410143F167AE
:1016F000A96CB1F1804F00F011F8296848030AD5B0
:10170000F968E86C21F440110143F960E96CB1F526
:10171000001F00F00BF84046BDE8F68703D13068A3
:1017200040F4803030607047B1F1006F03D1306811
:1017300040F48010306070470C100240901002405E
:101740000070004010B586B000F0F8F800F0A2F884
:101750001422002101A8FFF7E7FC4948494C016821
:1017600041F004010160026802F004020092009955
:10177000026842F020020260036803F02003009335
:101780000099026842F001020260036803F001035D
:1017900000930099026842F0020202600022006891
:1017A00000F002000090202100984FF09040FFF7D9
:1017B00090FD4FF4005034490190029100220392B1
:1017C00001A93248FFF7BAFC202101910122002132
:1017D00003910491029201A94FF09040FFF7AEFCF3
:1017E000002200212820FFF71DFE2820FFF738FEE9
:1017F000274820604FF4E1310C20002260616160D5
:10180000A260E2602261A26122626262A26220465C
:10181000FEF7E2FC08B100F084F80021204600F059
:10182000BBF808B100F07DF80021204600F0BFF8B9
:1018300008B100F076F8204600F090F808B100F00A
:1018400070F801A838A1122200F010F94FF47A7351
:10185000102201A92046FEF7FFFC00208DF80000B1
:101860000A23012269462046FEF752FD0028F7D1DF
:101870000A23012269462046FEF7EEFCF0E700004D
:101880004C10024010000020000011100008004819
:101890000080004080B5A8B03822002105A8FFF7DD
:1018A00043FC142200216846FFF73EFC542200212D
:1018B00013A8FFF739FC0020FFF7DEFB4FF480721E
:1018C00008920221022205910C920D9240210422DD
:1018D00009910E92552102220F91109211921292AB
:1018E00005A8FFF713F808B100F01BF80F2003213B
:1018F0000090019100220292039204920421684612
:10190000FFF7E5F908B172B6FEE720210022139136
:10191000199213A8FFF7D0FD08B172B6FEE729B0FF
:1019200000BD72B6FEE7000075706C6F61646520E3
:10193000636865636B65720A0D000000032010B5D3
:10194000FFF763FD0020FFF7FBFC0024002814BF15
:101950000124FEF789FF204610BD000010B500F1FC
:101960007C010A78012A01D1022010BD01220A70EF
:1019700024234B60026813681468640864001460D0
:101980000022426623F000530068036020224A6070
:1019900000230B70002010BD70B500F01FF801D1BE
:1019A000022070BD00F020F822F0604209E070B51E
:1019B00000F014F801D1022070BD00F015F822F0FB
:1019C000606211438160204600F01CF820680660C8
:1019D0002021696000222A70002070BD044604F1B5
:1019E0007C052878012870470120287024226A602D
:1019F0002068066802685208520002602068826807
:101A000070470000FFB500BF14A200BF15A6D2E9C1
:101A1000003402A9C1E90034D6E90071CDE90071B2
:101A2000416E11B90121012213E001688A688968B9
:101A3000520E02F00702490F02AC655CA45C1DF86F
:101A400001101DF80220ED00E40095FBF1F194FB7C
:101A5000F2F2683041800280FFBD00000101010305
:101A60000701000008040204080101014AB1000056
:101A700011F8013B521E00F8013B1CBF11F8013B5D
:101A8000F8E770470448054A016841F470010160B5
:101A90004FF000601060704788ED00E008ED00E056
:101AA000000000000000000001020304060708090E
:101AB00010B5074979441831064C7C44163404E0CB
:101AC0000A68081D114488470146A142F8D110BD9B
:101AD0002C0000004C0000004EF68851CEF20001B0
:101AE000086840F470000860BFF34F8FBFF36F8F3A
:101AF0004FF00070E1EE100A7047000043F5FFFF61
:101B00008C000000100000200000000007F8FFFF1C
:101B100010000000AC0000000000002000000000E9
:101B200000F00DF8002801D0FFF7C2FFAFF30080EE
:101B30000020AFF30080FFF705FE00F002F801205F
:101B4000704700F001B800000746384600F002F880
:101B5000FBE7000080B5AFF30080024A11001820B7
:101B6000ABBEFBE726000200FEE7FEE7FEE7FEE76E
:101B7000FEE770477047704700F004B84FF400501C
:101B8000FFF7ACBB02490A68886882180A60704790
:101B9000000000200548014603B4684680F3098828
:101BA000AFF30080FFF798FFFFF7BAFFA5EDF5FE52
:101BB0000148804701480047851A0008951B000826
:101BC0000000000010000000010000000024F400EC
:101BD0000000000001020304FFF7FEBFFFF7FEBF95
:101BE000FFF7FEBFFFF7FEBFFFF7FEBFFFF7FEBF29
:101BF000FFF7FEBFFFF7FEBFFFF7FEBFFFF7FEBF19
:101C0000FFF7FEBFFFF7FEBFFFF7FEBFFFF7FEBF08
:101C1000FFF7FEBFFFF7FEBFFFF7FEBFFFF7FEBFF8
:101C2000FFF7FEBFFFF7FEBFFFF7FEBFFFF7FEBFE8
:101C3000FFF7FEBFFFF7FEBFFFF7FEBFFFF7FEBFD8
:101C4000FFF7FEBFFFF7FEBFFFF7FEBFFFF7FEBFC8
:101C5000FFF7FEBFFFF7FEBFFFF7FEBFFFF7FEBFB8
:101C6000FFF7FEBFFFF7FEBFFFF7FEBFFFF7FEBFA8
:101C7000FFF7FEBFFFF7FEBFFFF7FEBFFFF7FEBF98
:101C8000FFF7FEBFFFF7FEBFFFF7FEBFFFF7FEBF88
:101C9000FFF7FEBFFFF7FEBFFFF7FEBFFFF7FEBF78
:101CA000FFF7FEBFFFF7FEBFFFF7FEBFFFF7FEBF68
:101CB000FFF7FEBFFFF7FEBFFFF7FEBFFFF7FEBF58
:101CC000FFF7FEBFFFF7FEBFFFF7FEBFFFF7FEBF48
:101CD000FFF7FEBFFFF7FEBFFFF7FEBFFFF7FEBF38
:101CE000FFF7FEBFFFF7FEBFFFF7FEBFFFF7FEBF28
:101CF000FFF7FEBFFFF7FEBFFFF7FEBFFFF7FEBF18
:101D0000FFF7FEBFFFF7FEBFFFF7FEBFFFF7FEBF07
:101D1000FFF7FEBFFFF7FEBFFFF7FEBFFFF7FEBFF7
:101D2000FFF7FEBFFFF7FEBFFFF7FEBFFFF7FEBFE7
:101D3000FFF7FEBFFFF7FEBFFFF7FEBFFFF7FEBFD7
:101D4000FFF7FEBFFFF7FEBFFFF7FEBFFFF7FEBFC7
:101D5000FFF7FEBFFFF7FEBFFFF7FEBFFFF7FEBFB7
:081D6000FFF7FEBFFFF7FEBF15
:0400000508001B953F
:00000001FF
